:040000000CEF00F011
:10000800FACF1AF0FBCF1BF0E9CF1CF00EED00F091
:10001800CDEF02F00600EACF1DF0E1CF1EF0E2CFEF
:100028001FF0D9CF20F0DACF21F0F3CF22F0F4CFB0
:1000380023F0F6CF24F0F7CF25F0F8CF26F0F5CF50
:1000480027F0010EF2AC000E9EAA000EE8A003D025
:10005800196A192A01D0196A1950D8B403D094EC36
:1000680002F014D0010EF2AA000EF2A4000EE8A0CD
:1000780003D0196A192A01D0196A1950D8B406D0C0
:100088000CEC04F02BEC03F0B2EC02F027C0F5FF07
:1000980026C0F8FF25C0F7FF24C0F6FF23C0F4FFF1
:1000A80022C0F3FF21C0DAFF20C0D9FF1FC0E2FF42
:1000B8001EC0E1FF1DC0EAFF1CC0E9FF1BC0FBFF1B
:1000C8001AC0FAFF11000AC00EF00BC00FF00EC0E4
:1000D80001F00FC002F00CC003F00DC004F009ECF1
:1000E80002F001C00EF002C00FF0084A092A0F50B2
:1000F8000E10D8A4ECD708C0D9FF09C0DAFF000E4B
:10010800DF6E0806D8A009060AC001F00BC002F08D
:100118000CC003F00DC004F053EC02F00150106E57
:100128000AC001F00BC002F00CC003F00DC004F0CF
:1001380009EC02F001C00AF002C00BF0090E1064CD
:1001480002D0070E1026300E102608C0D9FF09C0AD
:10015800DAFF10C0DFFF0806D8A009060B500A1006
:10016800D8A4D2D7084A092A12000001626F62C0D7
:10017800C9FFC6AE02D0FF0E38D0C6CF61F00F0E51
:100188000001611700016151080AD8B411D0C6CF27
:1001980061F00F0E00016117000161510B0AD8B41C
:1001A80007D0C6889EA6FED7C7A4C7B01DD01AD050
:1001B800C6CF61F00F0E0001611700016151080AF6
:1001C800D8B40AD0C6CF61F00F0E00016117000144
:1001D80061510B0AD8A409D0C7B0FED7F1EC03F0DF
:1001E800C5AC02D0FE0E01D0000E1200096E14EC50
:1001F80004F0C580C5B0FED7300E8FEC03F009506F
:100208008009096E09508FEC03F0C582C5B2FED78C
:10021800310E8FEC03F008C003F007C002F0010EA6
:10022800046EB3EC01F00009D8A4F5D7C59AC588C7
:10023800C5B8FED7010E0724026E000E0820036E13
:10024800010E046EB3EC01F00009D8A4F3D7C58AF7
:10025800C588C5B8FED7C5B8FED7C584C5B4FED70E
:1002680008C002F007C001F0E6EC02F0120000013D
:10027800656F000EAC6E000EAB6E000165B1AC8808
:10028800000165A302D0AC8CAB8C000165B5AC8EC7
:10029800000165A702D0AB8801D0AB8A000165B91F
:1002A800AC849E98000165BBAB86000165AD02D0A9
:1002B8009D8A01D09D9A9E9A000165AF02D09D88C3
:1002C80001D09D9860C0AFFF000161C062F062C0BC
:1002D80063F00001646B00016351B06EAC8AAB8EB1
:1002E800949C948EACB8ACBE01D0948C1200036E72
:1002F80003C0C9FFC6AE02D0FF0E30D0C6CF02F091
:100308000F0E02160250080AD8B40FD0C6CF02F05A
:100318000F0E021602500B0AD8B407D0C6889EA644
:10032800FED7C7A4C7B019D016D0C6CF02F00F0E9B
:1003380002160250080AD8B408D0C6CF02F00F0E31
:10034800021602500B0AD8A409D0C7B0FED714EC85
:1003580004F0C5AC02D0FE0E01D0000E120026D06B
:1003680056EC03F002C0D9FF03C0DAFFDF6E024A81
:10037800032AC5B6FED7A1A602D0FF0E1CD0C6CF51
:1003880005F00F0E05160550080AD8B408D0C6CFD8
:1003980005F00F0E051605500B0AD8A407D0045017
:1003A800D8B404D0C59AC588C5B8FED704060428B1
:1003B800D8A4D6D7000E120012C018F011C017F03A
:1003C8001450800AF36E800EF35C000ED8B4135CF0
:1003D800D8B00CD011C0D9FF12C0DAFF2D0EDF6ED5
:1003E800114A122A136C141ED8B0142A12C009F02C
:1003F80011C008F013C00AF014C00BF015C00CF0BF
:1004080016C00DF067EC00F01200000E066E000E2C
:10041800056E04500310D8B41CD0010E076E04D02A
:10042800D89003360436072A04AEFAD7D890053692
:1004380006360350015C04500258D8A005D003507A
:10044800015E0450025A0580D89004320332072E08
:10045800EDD705C001F006C002F012004F0EAB1632
:10046800AC9ACF0E9D167C0E0001686F040E000139
:10047800676FE10E0001666F66C060F067C061F0EB
:10048800000168513BEC01F0CE0E0001696F0001DC
:1004980069511CEC04F0F28EF28C9D8A1200045013
:1004A8000310D8B418D0010E056E04D0D8900336C6
:1004B8000436052A04AEFAD70350015C04500258EA
:1004C800D8A004D00350015E0450025AD8900432D8
:1004D8000332052EF1D701C001F002C002F012006C
:1004E80000016B6F0001685100016B1107090001E1
:1004F800666F200E15EC03F0000E0001666F210EEA
:1005080015EC03F00001695180090001666F230EA4
:1005180015EC03F06AC066F0240E15EC03F0120027
:100528009E9AB1EC03F0056E0550286E296A285092
:1005380003EC04F0ACA2FED72850530A2910D8A423
:1005480004D041EC03F0827208D02850580A2910D0
:10055800D8A403D024EC04F082701200000E126EAE
:10056800380E116E42C013F043C014F0000E166E20
:100578000A0E156EE0EC01F0000E036E380E026EE6
:100588006AEC03F0000E036E4C0E026E6AEC03F088
:10059800120000EE28F0200EEE6AE806FDE1420E99
:1005A800F66E080EF76E000EF86E00EE48F010EECC
:1005B80006F00900F5CFEEFFE550E150FAE1000141
:1005C800C0EF03F001C0D9FF02C0DAFFDECF03F0AD
:1005D800DDCF04F0040E056E043404320332052E18
:1005E800FBD701C0D9FF02C0DAFF03C0DEFF04C099
:1005F800DDFF12000001646FC9CF63F00001645190
:10060800B9EC00F00001656FF1EC03F00001652919
:10061800D8A403D0C9CF63F0C69E00016567EED7A2
:1006280012000001676FF1EC03F0C580C5B0FED77A
:10063800300EFEEC02F000016751FEEC02F0000102
:100648006651FEEC02F0C584C5A41200FDD7000E69
:10065800086E420E076E280EFAEC00F0000E086EC7
:10066800440E076E2A0EFAEC00F0000E086E460ED5
:10067800076E2C0EFAEC00F01200000E356E000E1C
:10068800346E000E336E000E326EF28EF28CF28AE9
:100698009F0EA1EC03F04AC001F04BC002F0FAEC47
:1006A80003F01200C6CF01F00F0E01160150080A20
:1006B800D8B407D0C6CF01F00F0E011601500B0AAF
:1006C800D8B4C586C7A0FED7C9501200ACA2FED7C1
:1006D80002C0D9FF03C0DAFFDF5003EC04F002C008
:1006E800D9FF03C0DAFF024A032ADF50D8B4120048
:1006F800EDD70001616F3F0EC716000EC66E000EE3
:10070800C56E00016151C61200016051C712938283
:100718009380C68A1200056EC9CF04F005507BECA1
:1007280001F0066E14EC04F00628D8A403D0C9CF53
:1007380004F0C69E0666F2D71200016E01507F0BC8
:10074800D56E000ED76E000ED66EF29401AE02D0B2
:10075800F28A01D0F29AD58E1200F20E3616ABACA0
:1007680003D03690ABB03680ABB43684ABB23686A5
:10077800AECF01F001501200000E946E000E8B6E89
:1007880032EC02F0E7EC03F0DAEC03F082808282CC
:10079800FFD70001646F2AEC04F062C060F000012A
:1007A80064517DEC03F063C0C8FF1200180E00010D
:1007B800686F300E0001696F000E00016A6F200E2D
:1007C80074EC02F01200000E0001626F1D0E0001B1
:1007D800636F080ECDEC03F01200C5CF60F01F0E5A
:1007E80000016017D8B4C7B4F8D7120001C003F0ED
:1007F80002C004F004C0D7FF03C0D6FF1200016E88
:10080800ACAC03D0AC9036B2AC8001C0ADFF1200E6
:10081800F2944AC001F04BC002F0FAEC03F0120067
:10082800C5CF01F01F0E0116D8B4C7B4F9D712000E
:100838000001606F60C0B8FF1200200088FF0A0046
:1008480027EC04F01200D59EF29A1200C69A120004
:020000040020DA
:08000000FFFFFFFFFFFFFFFF00
:020000040030CA
:0E000000040E201EFF8080FF0FC00FE00F4097
:00000001FF
