:040000000CEF00F011
:10000800FACF1AF0FBCF1BF0E9CF1CF079ED00F026
:10001800FFEF02F0ACA2FED7230E45EC04F0ACA231
:10002800FED7580E45EC04F0ACA2FED7000E126EB7
:10003800320E116E3CC013F03DC014F0000E166E67
:100048000A0E156E4BEC02F0000E036E320E026EB5
:100058009FEC03F0ACA2FED72B0E45EC04F0ACA24B
:10006800FED7590E45EC04F0ACA2FED7000E126E76
:10007800320E116E3EC013F03FC014F0000E166E23
:100088000A0E156E4BEC02F0000E036E320E026E75
:100098009FEC03F0ACA2FED72B0E45EC04F0ACA20B
:1000A800FED75A0E45EC04F0ACA2FED7000E126E35
:1000B800320E116E40C013F041C014F0000E166EDF
:1000C8000A0E156E4BEC02F0000E036E320E026E35
:1000D8009FEC03F0ACA2FED72B0E45EC04F0ACA2CB
:1000E800FED7210E45EC04F012000600EACF1DF001
:1000F800E1CF1EF0E2CF1FF0D9CF20F0DACF21F008
:10010800F3CF22F0F4CF23F0F6CF24F0F7CF25F089
:10011800F8CF26F0F5CF27F0010EF2AC000E9EAA1C
:10012800000EE8A003D0196A192A01D0196A1950DB
:10013800D8B403D018EC03F014D0010EF2AA000EC4
:10014800F2A4000EE8A003D0196A192A01D0196A8E
:100158001950D8B406D056EC04F075EC03F00EEC48
:1001680000F027C0F5FF26C0F8FF25C0F7FF24C020
:10017800F6FF23C0F4FF22C0F3FF21C0DAFF20C03E
:10018800D9FF1FC0E2FF1EC0E1FF1DC0EAFF1CC06F
:10019800E9FF1BC0FBFF1AC0FAFF11000AC00EF0EE
:1001A8000BC00FF00EC001F00FC002F00CC003F03E
:1001B8000DC004F074EC02F001C00EF002C00FF0A4
:1001C800084A092A0F500E10D8A4ECD708C0D9FF46
:1001D80009C0DAFF000EDF6E0806D8A009060AC0BB
:1001E80001F00BC002F00CC003F00DC004F0BEEC2F
:1001F80002F00150106E0AC001F00BC002F00CC0F2
:1002080003F00DC004F074EC02F001C00AF002C063
:100218000BF0090E106402D0070E1026300E1026BF
:1002280008C0D9FF09C0DAFF10C0DFFF0806D8A050
:1002380009060B500A10D8A4D2D7084A092A120076
:100248000001626F62C0C9FFC6AE02D0FF0E38D08F
:10025800C6CF61F00F0E0001611700016151080A55
:10026800D8B411D0C6CF61F00F0E0001611700019C
:1002780061510B0AD8B407D0C6889EA6FED7C7A47A
:10028800C7B01DD01AD0C6CF61F00F0E000161179C
:1002980000016151080AD8B40AD0C6CF61F00F0E28
:1002A80000016117000161510B0AD8A409D0C7B039
:1002B800FED733EC04F0C5AC02D0FE0E01D0000E20
:1002C8001200096E5EEC04F0C580C5B0FED7300E92
:1002D800C4EC03F009508009096E0950C4EC03F01E
:1002E800C582C5B2FED7310EC4EC03F008C003F0D6
:1002F80007C002F0010E046E1EEC02F00009D8A43B
:10030800F5D7C59AC588C5B8FED7010E0724026E71
:10031800000E0820036E010E046E1EEC02F00009A8
:10032800D8A4F3D7C58AC588C5B8FED7C5B8FED73F
:10033800C584C5B4FED708C002F007C001F030EC90
:1003480003F012000001656F000EAC6E000EAB6E7C
:10035800000165B1AC88000165A302D0AC8CAB8C00
:10036800000165B5AC8E000165A702D0AB8801D04D
:10037800AB8A000165B9AC849E98000165BBAB8669
:10038800000165AD02D09D8A01D09D9A9E9A000118
:1003980065AF02D09D8801D09D9860C0AFFF000175
:1003A80061C062F062C063F00001646B00016351D8
:1003B800B06EAC8AAB8E949C948EACB8ACBE01D0B7
:1003C800948C1200036E03C0C9FFC6AE02D0FF0EA4
:1003D80030D0C6CF02F00F0E02160250080AD8B469
:1003E8000FD0C6CF02F00F0E021602500B0AD8B477
:1003F80007D0C6889EA6FED7C7A4C7B019D016D006
:10040800C6CF02F00F0E02160250080AD8B408D060
:10041800C6CF02F00F0E021602500B0AD8A409D05C
:10042800C7B0FED75EEC04F0C5AC02D0FE0E01D01A
:10043800000E120026D08BEC03F002C0D9FF03C0D7
:10044800DAFFDF6E024A032AC5B6FED7A1A602D09C
:10045800FF0E1CD0C6CF05F00F0E05160550080A72
:10046800D8B408D0C6CF05F00F0E051605500B0AF4
:10047800D8A407D00450D8B404D0C59AC588C5B844
:10048800FED704060428D8A4D6D7000E120012C03E
:1004980018F011C017F01450800AF36E800EF35C48
:1004A800000ED8B4135CD8B00CD011C0D9FF12C05C
:1004B800DAFF2D0EDF6E114A122A136C141ED8B003
:1004C800142A12C009F011C008F013C00AF014C0B1
:1004D8000BF015C00CF016C00DF0D2EC00F01200B5
:1004E800000E066E000E056E04500310D8B41CD022
:1004F800010E076E04D0D89003360436072A04AEDE
:10050800FAD7D890053606360350015C04500258D5
:10051800D8A005D00350015E0450025A0580D89037
:1005280004320332072EEDD705C001F006C002F0F1
:1005380012004F0EAB16AC9ACF0E9D167C0E000122
:10054800686F040E0001676FE10E0001666F66C0F8
:1005580060F067C061F000016851A6EC01F0CE0EB2
:100568000001696F0001695166EC04F0F28EF28CAB
:100578009D8A120004500310D8B418D0010E056EDD
:1005880004D0D89003360436052A04AEFAD70350AF
:10059800015C04500258D8A004D00350015E0450F6
:1005A800025AD89004320332052EF1D701C001F067
:1005B80002C002F0120000016B6F000168510001D7
:1005C8006B1107090001666F200E5FEC03F0000E47
:1005D8000001666F210E5FEC03F00001695180098C
:1005E8000001666F230E5FEC03F06AC066F0240E0C
:1005F8005FEC03F0120000EE28F01A0EEE6AE8062F
:10060800FDE19C0EF66E080EF76E000EF86E00EE19
:1006180042F010EE10F00900F5CFEEFFE550E15082
:10062800FAE10001F5EF03F09E9AE6EC03F0056E9F
:100638000550286E296AACA2FED72850530A291003
:10064800D8A403D01CEC04F006D02850580A29106E
:10065800D8B46BEC04F0120001C0D9FF02C0DAFF75
:10066800DECF03F0DDCF04F0040E056E043404324F
:100678000332052EFBD701C0D9FF02C0DAFF03C041
:10068800DEFF04C0DDFF12000001646FC9CF63F014
:100698000001645124EC01F00001656F33EC04F0B3
:1006A80000016529D8A403D0C9CF63F0C69E000114
:1006B8006567EED712000001676F33EC04F0C58060
:1006C800C5B0FED7300E48EC03F00001675148EC86
:1006D80003F00001665148EC03F0C584C5A412007C
:1006E800FDD7000E086E3C0E076E280E65EC01F073
:1006F800000E086E3E0E076E2A0E65EC01F0000E25
:10070800086E400E076E2C0E65EC01F01200C6CF85
:1007180001F00F0E01160150080AD8B407D0C6CF51
:1007280001F00F0E011601500B0AD8B4C586C7A0F8
:10073800FED7C9501200ACA2FED702C0D9FF03C031
:10074800DAFFDF5045EC04F002C0D9FF03C0DAFF3E
:10075800024A032ADF50D8B41200EDD70001616FB6
:100768003F0EC716000EC66E000EC56E0001615121
:10077800C61200016051C71293829380C68A120084
:10078800056EC9CF04F00550E6EC01F0066E5EEC8C
:1007980004F00628D8A403D0C9CF04F0C69E066684
:1007A800F2D71200016E01507F0BD56E000ED76E86
:1007B800000ED66EF29401AE02D0F28A01D0F29AFF
:1007C800D58E1200F20E3016ABAC03D03090ABB021
:1007D8003080ABB43084ABB23086AECF01F001507C
:1007E8001200000E946E000E8B6E9DEC02F029EC48
:1007F80004F00FEC04F082808282FFD70001646F5E
:1008080071EC04F062C060F000016451B2EC03F0D6
:1008180063C0C8FF1200180E0001686F300E000197
:10082800696F000E00016A6F200EDFEC02F0120003
:10083800F28EF28CF28A9F0ED6EC03F04AC001F0D9
:100848004BC002F03CEC04F01200000E0001626F95
:100858001D0E0001636F080E02EC04F01200C5CFF4
:1008680060F01F0E00016017D8B4C7B4F8D71200A3
:1008780001C003F002C004F004C0D7FF03C0D6FFD4
:100888001200016EACAC03D0AC9030B2AC8001C0A9
:10089800ADFF12007E000A002B00230090E85800EC
:1008A80059005A00F2944AC001F04BC002F03CECE7
:1008B80004F01200C5CF01F01F0E0116D8B4C7B45A
:1008C800F9D712000001606F60C0B8FF12006EEC2B
:0E08D80004F01200D59EF29A1200C69A120089
:020000040020DA
:08000000FFFFFFFFFFFFFFFF00
:020000040030CA
:0E000000040E201EFF8080FF0FC00FE00F4097
:00000001FF
